{
	"contracts/Ex4.VariablesScope.sol": {
		"EX4": {
			"abi": [
				{
					"inputs": [],
					"name": "getinternalData",
					"outputs": [
						{
							"internalType": "uint256",
							"name": "",
							"type": "uint256"
						}
					],
					"stateMutability": "view",
					"type": "function"
				},
				{
					"inputs": [],
					"name": "publicData",
					"outputs": [
						{
							"internalType": "uint256",
							"name": "",
							"type": "uint256"
						}
					],
					"stateMutability": "view",
					"type": "function"
				},
				{
					"inputs": [
						{
							"internalType": "uint256",
							"name": "_value",
							"type": "uint256"
						}
					],
					"name": "setpublicData",
					"outputs": [],
					"stateMutability": "nonpayable",
					"type": "function"
				}
			],
			"devdoc": {
				"kind": "dev",
				"methods": {},
				"version": 1
			},
			"evm": {
				"assembly": "    /* \"contracts/Ex4.VariablesScope.sol\":60:663  contract EX4 {... */\n  mstore(0x40, 0x80)\n    /* \"contracts/Ex4.VariablesScope.sol\":105:108  100 */\n  0x64\n    /* \"contracts/Ex4.VariablesScope.sol\":80:108  uint public publicData = 100 */\n  0x00\n  sstore\n    /* \"contracts/Ex4.VariablesScope.sol\":163:166  200 */\n  0xc8\n    /* \"contracts/Ex4.VariablesScope.sol\":134:166  uint internal internalData = 200 */\n  0x01\n  sstore\n    /* \"contracts/Ex4.VariablesScope.sol\":221:224  300 */\n  0x012c\n    /* \"contracts/Ex4.VariablesScope.sol\":194:224  uint private privateData = 300 */\n  0x02\n  sstore\n    /* \"contracts/Ex4.VariablesScope.sol\":60:663  contract EX4 {... */\n  callvalue\n  dup1\n  iszero\n  tag_1\n  jumpi\n  0x00\n  dup1\n  revert\ntag_1:\n  pop\n  dataSize(sub_0)\n  dup1\n  dataOffset(sub_0)\n  0x00\n  codecopy\n  0x00\n  return\nstop\n\nsub_0: assembly {\n        /* \"contracts/Ex4.VariablesScope.sol\":60:663  contract EX4 {... */\n      mstore(0x40, 0x80)\n      callvalue\n      dup1\n      iszero\n      tag_1\n      jumpi\n      0x00\n      dup1\n      revert\n    tag_1:\n      pop\n      jumpi(tag_2, lt(calldatasize, 0x04))\n      shr(0xe0, calldataload(0x00))\n      dup1\n      0x402b15d3\n      eq\n      tag_3\n      jumpi\n      dup1\n      0x7c821bd7\n      eq\n      tag_4\n      jumpi\n      dup1\n      0x9a76717a\n      eq\n      tag_5\n      jumpi\n    tag_2:\n      0x00\n      dup1\n      revert\n        /* \"contracts/Ex4.VariablesScope.sol\":427:518  function getinternalData() public view returns (uint){... */\n    tag_3:\n      tag_6\n      tag_7\n      jump\t// in\n    tag_6:\n      mload(0x40)\n      tag_8\n      swap2\n      swap1\n      tag_9\n      jump\t// in\n    tag_8:\n      mload(0x40)\n      dup1\n      swap2\n      sub\n      swap1\n      return\n        /* \"contracts/Ex4.VariablesScope.sol\":294:375  function setpublicData(uint _value) public {... */\n    tag_4:\n      tag_10\n      0x04\n      dup1\n      calldatasize\n      sub\n      dup2\n      add\n      swap1\n      tag_11\n      swap2\n      swap1\n      tag_12\n      jump\t// in\n    tag_11:\n      tag_13\n      jump\t// in\n    tag_10:\n      stop\n        /* \"contracts/Ex4.VariablesScope.sol\":80:108  uint public publicData = 100 */\n    tag_5:\n      tag_14\n      tag_15\n      jump\t// in\n    tag_14:\n      mload(0x40)\n      tag_16\n      swap2\n      swap1\n      tag_9\n      jump\t// in\n    tag_16:\n      mload(0x40)\n      dup1\n      swap2\n      sub\n      swap1\n      return\n        /* \"contracts/Ex4.VariablesScope.sol\":427:518  function getinternalData() public view returns (uint){... */\n    tag_7:\n        /* \"contracts/Ex4.VariablesScope.sol\":475:479  uint */\n      0x00\n        /* \"contracts/Ex4.VariablesScope.sol\":498:510  internalData */\n      sload(0x01)\n        /* \"contracts/Ex4.VariablesScope.sol\":491:510  return internalData */\n      swap1\n      pop\n        /* \"contracts/Ex4.VariablesScope.sol\":427:518  function getinternalData() public view returns (uint){... */\n      swap1\n      jump\t// out\n        /* \"contracts/Ex4.VariablesScope.sol\":294:375  function setpublicData(uint _value) public {... */\n    tag_13:\n        /* \"contracts/Ex4.VariablesScope.sol\":361:367  _value */\n      dup1\n        /* \"contracts/Ex4.VariablesScope.sol\":348:358  publicData */\n      0x00\n        /* \"contracts/Ex4.VariablesScope.sol\":348:367  publicData = _value */\n      dup2\n      swap1\n      sstore\n      pop\n        /* \"contracts/Ex4.VariablesScope.sol\":294:375  function setpublicData(uint _value) public {... */\n      pop\n      jump\t// out\n        /* \"contracts/Ex4.VariablesScope.sol\":80:108  uint public publicData = 100 */\n    tag_15:\n      sload(0x00)\n      dup2\n      jump\t// out\n        /* \"#utility.yul\":7:84   */\n    tag_19:\n        /* \"#utility.yul\":44:51   */\n      0x00\n        /* \"#utility.yul\":73:78   */\n      dup2\n        /* \"#utility.yul\":62:78   */\n      swap1\n      pop\n        /* \"#utility.yul\":7:84   */\n      swap2\n      swap1\n      pop\n      jump\t// out\n        /* \"#utility.yul\":90:208   */\n    tag_20:\n        /* \"#utility.yul\":177:201   */\n      tag_29\n        /* \"#utility.yul\":195:200   */\n      dup2\n        /* \"#utility.yul\":177:201   */\n      tag_19\n      jump\t// in\n    tag_29:\n        /* \"#utility.yul\":172:175   */\n      dup3\n        /* \"#utility.yul\":165:202   */\n      mstore\n        /* \"#utility.yul\":90:208   */\n      pop\n      pop\n      jump\t// out\n        /* \"#utility.yul\":214:436   */\n    tag_9:\n        /* \"#utility.yul\":307:311   */\n      0x00\n        /* \"#utility.yul\":345:347   */\n      0x20\n        /* \"#utility.yul\":334:343   */\n      dup3\n        /* \"#utility.yul\":330:348   */\n      add\n        /* \"#utility.yul\":322:348   */\n      swap1\n      pop\n        /* \"#utility.yul\":358:429   */\n      tag_31\n        /* \"#utility.yul\":426:427   */\n      0x00\n        /* \"#utility.yul\":415:424   */\n      dup4\n        /* \"#utility.yul\":411:428   */\n      add\n        /* \"#utility.yul\":402:408   */\n      dup5\n        /* \"#utility.yul\":358:429   */\n      tag_20\n      jump\t// in\n    tag_31:\n        /* \"#utility.yul\":214:436   */\n      swap3\n      swap2\n      pop\n      pop\n      jump\t// out\n        /* \"#utility.yul\":523:640   */\n    tag_22:\n        /* \"#utility.yul\":632:633   */\n      0x00\n        /* \"#utility.yul\":629:630   */\n      dup1\n        /* \"#utility.yul\":622:634   */\n      revert\n        /* \"#utility.yul\":769:891   */\n    tag_24:\n        /* \"#utility.yul\":842:866   */\n      tag_36\n        /* \"#utility.yul\":860:865   */\n      dup2\n        /* \"#utility.yul\":842:866   */\n      tag_19\n      jump\t// in\n    tag_36:\n        /* \"#utility.yul\":835:840   */\n      dup2\n        /* \"#utility.yul\":832:867   */\n      eq\n        /* \"#utility.yul\":822:885   */\n      tag_37\n      jumpi\n        /* \"#utility.yul\":881:882   */\n      0x00\n        /* \"#utility.yul\":878:879   */\n      dup1\n        /* \"#utility.yul\":871:883   */\n      revert\n        /* \"#utility.yul\":822:885   */\n    tag_37:\n        /* \"#utility.yul\":769:891   */\n      pop\n      jump\t// out\n        /* \"#utility.yul\":897:1036   */\n    tag_25:\n        /* \"#utility.yul\":943:948   */\n      0x00\n        /* \"#utility.yul\":981:987   */\n      dup2\n        /* \"#utility.yul\":968:988   */\n      calldataload\n        /* \"#utility.yul\":959:988   */\n      swap1\n      pop\n        /* \"#utility.yul\":997:1030   */\n      tag_39\n        /* \"#utility.yul\":1024:1029   */\n      dup2\n        /* \"#utility.yul\":997:1030   */\n      tag_24\n      jump\t// in\n    tag_39:\n        /* \"#utility.yul\":897:1036   */\n      swap3\n      swap2\n      pop\n      pop\n      jump\t// out\n        /* \"#utility.yul\":1042:1371   */\n    tag_12:\n        /* \"#utility.yul\":1101:1107   */\n      0x00\n        /* \"#utility.yul\":1150:1152   */\n      0x20\n        /* \"#utility.yul\":1138:1147   */\n      dup3\n        /* \"#utility.yul\":1129:1136   */\n      dup5\n        /* \"#utility.yul\":1125:1148   */\n      sub\n        /* \"#utility.yul\":1121:1153   */\n      slt\n        /* \"#utility.yul\":1118:1237   */\n      iszero\n      tag_41\n      jumpi\n        /* \"#utility.yul\":1156:1235   */\n      tag_42\n      tag_22\n      jump\t// in\n    tag_42:\n        /* \"#utility.yul\":1118:1237   */\n    tag_41:\n        /* \"#utility.yul\":1276:1277   */\n      0x00\n        /* \"#utility.yul\":1301:1354   */\n      tag_43\n        /* \"#utility.yul\":1346:1353   */\n      dup5\n        /* \"#utility.yul\":1337:1343   */\n      dup3\n        /* \"#utility.yul\":1326:1335   */\n      dup6\n        /* \"#utility.yul\":1322:1344   */\n      add\n        /* \"#utility.yul\":1301:1354   */\n      tag_25\n      jump\t// in\n    tag_43:\n        /* \"#utility.yul\":1291:1354   */\n      swap2\n      pop\n        /* \"#utility.yul\":1247:1364   */\n      pop\n        /* \"#utility.yul\":1042:1371   */\n      swap3\n      swap2\n      pop\n      pop\n      jump\t// out\n\n    auxdata: 0xa264697066735822122048f79bef05dade5cb8916e0828e5f5257f771fc139f1e9bfa0e22355d207ebb564736f6c634300081a0033\n}\n",
				"bytecode": {
					"linkReferences": {},
					"object": "608060405260645f5560c860015561012c600255348015601d575f80fd5b506101728061002b5f395ff3fe608060405234801561000f575f80fd5b506004361061003f575f3560e01c8063402b15d3146100435780637c821bd7146100615780639a76717a1461007d575b5f80fd5b61004b61009b565b60405161005891906100ca565b60405180910390f35b61007b60048036038101906100769190610111565b6100a4565b005b6100856100ad565b60405161009291906100ca565b60405180910390f35b5f600154905090565b805f8190555050565b5f5481565b5f819050919050565b6100c4816100b2565b82525050565b5f6020820190506100dd5f8301846100bb565b92915050565b5f80fd5b6100f0816100b2565b81146100fa575f80fd5b50565b5f8135905061010b816100e7565b92915050565b5f60208284031215610126576101256100e3565b5b5f610133848285016100fd565b9150509291505056fea264697066735822122048f79bef05dade5cb8916e0828e5f5257f771fc139f1e9bfa0e22355d207ebb564736f6c634300081a0033",
					"opcodes": "PUSH1 0x80 PUSH1 0x40 MSTORE PUSH1 0x64 PUSH0 SSTORE PUSH1 0xC8 PUSH1 0x1 SSTORE PUSH2 0x12C PUSH1 0x2 SSTORE CALLVALUE DUP1 ISZERO PUSH1 0x1D JUMPI PUSH0 DUP1 REVERT JUMPDEST POP PUSH2 0x172 DUP1 PUSH2 0x2B PUSH0 CODECOPY PUSH0 RETURN INVALID PUSH1 0x80 PUSH1 0x40 MSTORE CALLVALUE DUP1 ISZERO PUSH2 0xF JUMPI PUSH0 DUP1 REVERT JUMPDEST POP PUSH1 0x4 CALLDATASIZE LT PUSH2 0x3F JUMPI PUSH0 CALLDATALOAD PUSH1 0xE0 SHR DUP1 PUSH4 0x402B15D3 EQ PUSH2 0x43 JUMPI DUP1 PUSH4 0x7C821BD7 EQ PUSH2 0x61 JUMPI DUP1 PUSH4 0x9A76717A EQ PUSH2 0x7D JUMPI JUMPDEST PUSH0 DUP1 REVERT JUMPDEST PUSH2 0x4B PUSH2 0x9B JUMP JUMPDEST PUSH1 0x40 MLOAD PUSH2 0x58 SWAP2 SWAP1 PUSH2 0xCA JUMP JUMPDEST PUSH1 0x40 MLOAD DUP1 SWAP2 SUB SWAP1 RETURN JUMPDEST PUSH2 0x7B PUSH1 0x4 DUP1 CALLDATASIZE SUB DUP2 ADD SWAP1 PUSH2 0x76 SWAP2 SWAP1 PUSH2 0x111 JUMP JUMPDEST PUSH2 0xA4 JUMP JUMPDEST STOP JUMPDEST PUSH2 0x85 PUSH2 0xAD JUMP JUMPDEST PUSH1 0x40 MLOAD PUSH2 0x92 SWAP2 SWAP1 PUSH2 0xCA JUMP JUMPDEST PUSH1 0x40 MLOAD DUP1 SWAP2 SUB SWAP1 RETURN JUMPDEST PUSH0 PUSH1 0x1 SLOAD SWAP1 POP SWAP1 JUMP JUMPDEST DUP1 PUSH0 DUP2 SWAP1 SSTORE POP POP JUMP JUMPDEST PUSH0 SLOAD DUP2 JUMP JUMPDEST PUSH0 DUP2 SWAP1 POP SWAP2 SWAP1 POP JUMP JUMPDEST PUSH2 0xC4 DUP2 PUSH2 0xB2 JUMP JUMPDEST DUP3 MSTORE POP POP JUMP JUMPDEST PUSH0 PUSH1 0x20 DUP3 ADD SWAP1 POP PUSH2 0xDD PUSH0 DUP4 ADD DUP5 PUSH2 0xBB JUMP JUMPDEST SWAP3 SWAP2 POP POP JUMP JUMPDEST PUSH0 DUP1 REVERT JUMPDEST PUSH2 0xF0 DUP2 PUSH2 0xB2 JUMP JUMPDEST DUP2 EQ PUSH2 0xFA JUMPI PUSH0 DUP1 REVERT JUMPDEST POP JUMP JUMPDEST PUSH0 DUP2 CALLDATALOAD SWAP1 POP PUSH2 0x10B DUP2 PUSH2 0xE7 JUMP JUMPDEST SWAP3 SWAP2 POP POP JUMP JUMPDEST PUSH0 PUSH1 0x20 DUP3 DUP5 SUB SLT ISZERO PUSH2 0x126 JUMPI PUSH2 0x125 PUSH2 0xE3 JUMP JUMPDEST JUMPDEST PUSH0 PUSH2 0x133 DUP5 DUP3 DUP6 ADD PUSH2 0xFD JUMP JUMPDEST SWAP2 POP POP SWAP3 SWAP2 POP POP JUMP INVALID LOG2 PUSH5 0x6970667358 0x22 SLT KECCAK256 BASEFEE 0xF7 SWAP12 0xEF SDIV 0xDA 0xDE TLOAD 0xB8 SWAP2 PUSH15 0x828E5F5257F771FC139F1E9BFA0E2 0x23 SSTORE 0xD2 SMOD 0xEB 0xB5 PUSH5 0x736F6C6343 STOP ADDMOD BYTE STOP CALLER "
				},
				"gasEstimates": {
					"creation": {
						"codeDepositCost": "74000",
						"executionCost": "66438",
						"totalCost": "140438"
					},
					"external": {
						"getinternalData()": "2410",
						"publicData()": "2446",
						"setpublicData(uint256)": "22514"
					},
					"internal": {
						"setinternalData(uint256)": "infinite"
					}
				},
				"methodIdentifiers": {
					"getinternalData()": "402b15d3",
					"publicData()": "9a76717a",
					"setpublicData(uint256)": "7c821bd7"
				}
			},
			"storageLayout": {
				"storage": [
					{
						"astId": 4,
						"contract": "contracts/Ex4.VariablesScope.sol:EX4",
						"label": "publicData",
						"offset": 0,
						"slot": "0",
						"type": "t_uint256"
					},
					{
						"astId": 7,
						"contract": "contracts/Ex4.VariablesScope.sol:EX4",
						"label": "internalData",
						"offset": 0,
						"slot": "1",
						"type": "t_uint256"
					},
					{
						"astId": 10,
						"contract": "contracts/Ex4.VariablesScope.sol:EX4",
						"label": "privateData",
						"offset": 0,
						"slot": "2",
						"type": "t_uint256"
					}
				],
				"types": {
					"t_uint256": {
						"encoding": "inplace",
						"label": "uint256",
						"numberOfBytes": "32"
					}
				}
			},
			"userdoc": {
				"kind": "user",
				"methods": {},
				"version": 1
			}
		}
	}
}